S01C0000496E74657272757063696F6E53656D61666F726F2E73726563CA
S11300000C9434000C943E000C943E000C943E007E
S11300100C943E000C94FB000C943E000C943E00A7
S11300200C943E000C943E000C943E000C943E0054
S11300300C943E000C943E000C943E000C943E0044
S11300400C943E000C943E000C943E000C943E0034
S11300500C943E000C943E000C943E000C943E0024
S11300600C943E000C943E0011241FBECFEFD8E048
S1130070DEBFCDBF0E9486000C9432010C940000B8
S1130080CF93DF93DC01EB01E0E0F0E029C085B120
S113009021E030E0A9010C9002C0440F551F0A94DE
S11300A0E2F7482B45B94FEF81EE94E04150804090
S11300B09040E1F700C0000095B10C9002C0220FFF
S11300C0331F0A94E2F72095292325B92FEF41EE37
S11300D084E0215040408040E1F700C000003196A8
S11300E0888199818E179F0794F61982188225B109
S11300F081E090E00C9002C0880F991F0A94E2F707
S11301008095822385B9DF91CF910895CF93DF93B2
S113011000D000D0CDB7DEB7F8941A82198284B12A
S1130120806184B984B1826084B984B1806884B9FF
S11301308AB18F7E8AB9E8E6F0E0808184608083AA
S1130140EDE6F0E0808180618083789481E090E046
S11301509C838B8385B1826085B92FEF8FE097E212
S1130160215080409040E1F700C0000004E010E01E
S11301701A830983BE016F5F7F4FCE0103960E94ED
S113018040001C830B8385B1806185B96894EE249B
S1130190E3F8F12CFA82E982BE016F5F7F4FCE0152
S11301A003960E94400087E090E09C838B8385B196
S11301B0806885B92FEF8FE097E22150804090400E
S11301C0E1F700C000001A830983BE016F5F7F4F0F
S11301D0CE0103960E9440001C830B8385B180618D
S11301E085B9FA82E982BE016F5F7F4FCE01039623
S11301F00E944000ABCF1F920F920FB60F921124B2
S11302002F933F934F938F939F934C991CC020C07F
S113021085B1826085B94FEF81EE94E04150804012
S11302209040E1F700C0000085B18D7F85B94FEFA4
S113023081EE94E0415080409040E1F700C000001E
S11302402F5F3F4F02C020E030E02B30310504F334
S11302509F918F914F913F912F910F900FBE0F90CF
S10B02601F901895F894FFCFDC
S9030000FC
